Microchip MPLAB XC8 Compiler V1.44 ()

Linker command line:

-W-3 --edf=/opt/microchip/xc8/v1.44/dat/en_msgs.txt -cs \
  -h+dist/default/production/ProjectMPLAB.X.production.sym \
  --cmf=dist/default/production/ProjectMPLAB.X.production.cmf -z -Q16F887 \
  -o/tmp/xcXvkq9IO -Mdist/default/production/ProjectMPLAB.X.production.map \
  -E1 -ver=XC8 -ASTACK=0110h-016fh -pstack=STACK -ACODE=00h-07FFhx4 \
  -ASTRCODE=00h-01FFFh -ASTRING=00h-0FFhx32 -ACONST=00h-0FFhx32 \
  -AENTRY=00h-0FFhx32 -ACOMMON=070h-07Fh -ABANK0=020h-06Fh \
  -ABANK1=0A0h-0EFh -ABANK2=0110h-016Fh -ABANK3=0190h-01EFh \
  -ARAM=020h-06Fh,0A0h-0EFh,0110h-016Fh,0190h-01EFh \
  -AABS1=020h-07Fh,0A0h-0EFh,0110h-016Fh,0190h-01EFh -ASFR0=00h-01Fh \
  -ASFR1=080h-09Fh -ASFR2=0100h-010Fh -ASFR3=0180h-018Fh \
  -preset_vec=00h,intentry=04h,init,end_init -ppowerup=CODE -pcinit=CODE \
  -pfunctab=ENTRY -ACONFIG=02007h-02008h -pconfig=CONFIG -DCONFIG=2 \
  -AIDLOC=02000h-02003h -pidloc=IDLOC -DIDLOC=2 -AEEDATA=00h-0FFh/02100h \
  -peeprom_data=EEDATA -DEEDATA=2 -DCODE=2 -DSTRCODE=2 -DSTRING=2 -DCONST=2 \
  -DENTRY=2 -k /tmp/xcXZsIw4T.obj \
  dist/default/production/ProjectMPLAB.X.production.obj 

Object code version is 3.11

Machine type is 16F887



                Name                               Link     Load   Length Selector   Space Scale
/tmp/xcXZsIw4T.obj
                end_init                             12       12        3        8       0
                reset_vec                             0        0        3        0       0
                config                             2007     2007        2     400E       0
dist/default/production/ProjectMPLAB.X.production.obj
                cinit                                15       15       27        8       0
                functab                              3C       3C        C       78       0
                intentry                              4        4        E        8       0
                text33                               DF       DF        4       90       0
                text32                               B0       B0        B       90       0
                text31                               DB       DB        4       90       0
                text30                              6AA      6AA       30      40C       0
                text29                              72E      72E       25      40C       0
                text28                               D4       D4        7       90       0
                text27                              410      410       5B      40C       0
                text26                              206      206       BF      40C       0
                text25                              7FB      7FB        4      40C       0
                text24                              640      640       37      40C       0
                text23                               6F       6F       13       90       0
                text22                              46B      46B       56      40C       0
                text21                               BB       BB        9       90       0
                text20                              797      797       1F      40C       0
                text19                              602      602       3E      40C       0
                text18                              569      569       4D      40C       0
                text17                              753      753       23      40C       0
                text16                              33F      33F       6D      40C       0
                text15                               48       48       14       90       0
                text14                              7D2      7D2       15      40C       0
                text13                              2C5      2C5       7A      40C       0
                text12                              7E7      7E7       14      40C       0
                text11                              5B6      5B6       4C      40C       0
                text10                              4C1      4C1       55      40C       0
                text9                               677      677       33      40C       0
                text8                                5C       5C       13       90       0
                text7                                CC       CC        8       90       0
                text6                                82       82       12       90       0
                text5                               6DA      6DA       2F      40C       0
                text4                               776      776       21      40C       0
                text3                               709      709       25      40C       0
                text2                               7B6      7B6       1C      40C       0
                text1                               3AC      3AC       64      40C       0
                maintext                            516      516       53      40C       0
                cstackBANK0                          20       20       2E       20       1
                cstackCOMMON                         70       70        5       70       1
                clrtext                              C4       C4        8       90       0
                inittext                             94       94       11       90       0
                dataBANK0                            62       62        B       20       1
                bssBANK0                             4E       4E       14       20       1
                dataCOMMON                           78       78        2       70       1
                bssCOMMON                            75       75        3       70       1
                nvBANK0                              6D       6D        1       20       1
                stringtext                          100      100      106        2       0
                idataBANK0                           A5       A5        B       90       0
                idataCOMMON                          E3       E3        2       90       0

TOTAL           Name                               Link     Load   Length     Space
        CLASS   STACK          

        CLASS   CODE           
                end_init                             12       12        3         0
                cinit                                15       15       27         0
                intentry                              4        4        E         0
                reset_vec                             0        0        3         0
                text33                               DF       DF        4         0
                text32                               B0       B0        B         0
                text31                               DB       DB        4         0
                text30                              6AA      6AA       30         0
                text29                              72E      72E       25         0
                text28                               D4       D4        7         0
                text27                              410      410       5B         0
                text26                              206      206       BF         0
                text25                              7FB      7FB        4         0
                text24                              640      640       37         0
                text23                               6F       6F       13         0
                text22                              46B      46B       56         0
                text21                               BB       BB        9         0
                text20                              797      797       1F         0
                text19                              602      602       3E         0
                text18                              569      569       4D         0
                text17                              753      753       23         0
                text16                              33F      33F       6D         0
                text15                               48       48       14         0
                text14                              7D2      7D2       15         0
                text13                              2C5      2C5       7A         0
                text12                              7E7      7E7       14         0
                text11                              5B6      5B6       4C         0
                text10                              4C1      4C1       55         0
                text9                               677      677       33         0
                text8                                5C       5C       13         0
                text7                                CC       CC        8         0
                text6                                82       82       12         0
                text5                               6DA      6DA       2F         0
                text4                               776      776       21         0
                text3                               709      709       25         0
                text2                               7B6      7B6       1C         0
                text1                               3AC      3AC       64         0
                maintext                            516      516       53         0
                clrtext                              C4       C4        8         0
                inittext                             94       94       11         0
                idataBANK0                           A5       A5        B         0
                idataCOMMON                          E3       E3        2         0

        CLASS   STRCODE        
                stringtext                          100      100      106         0

        CLASS   STRING         

        CLASS   CONST          

        CLASS   ENTRY          
                functab                              3C       3C        C         0

        CLASS   COMMON         
                cstackCOMMON                         70       70        5         1
                dataCOMMON                           78       78        2         1
                bssCOMMON                            75       75        3         1

        CLASS   BANK0          
                cstackBANK0                          20       20       2E         1
                dataBANK0                            62       62        B         1
                bssBANK0                             4E       4E       14         1
                nvBANK0                              6D       6D        1         1

        CLASS   BANK1          

        CLASS   BANK2          

        CLASS   BANK3          

        CLASS   RAM            

        CLASS   ABS1           
                abs_s1                               7E       7E        2         1

        CLASS   SFR0           

        CLASS   SFR1           

        CLASS   SFR2           

        CLASS   SFR3           

        CLASS   CONFIG         
                config                             2007     2007        2         0

        CLASS   IDLOC          

        CLASS   EEDATA         



SEGMENTS        Name                           Load    Length   Top    Selector   Space  Class     Delta

                reset_vec                      000000  000003  000003         0       0  CODE        2
                intentry                       000004  000038  00003C         8       0  CODE        2
                cstackBANK0                    000020  00004E  00006E        20       1  BANK0       1
                cstackCOMMON                   000070  00000A  00007A        70       1  COMMON      1
                functab                        00003C  00000C  000048        78       0  ENTRY       2
                text15                         000048  00009D  0000E5        90       0  CODE        2
                stringtext                     000100  000106  000206         2       0  STRCODE     2
                text26                         000206  0005F9  0007FF       40C       0  CODE        2
                config                         002007  000002  002009      400E       0  CONFIG      2


UNUSED ADDRESS RANGES

        Name                Unused          Largest block    Delta
        BANK0            006E-006F              2           1
        BANK1            00A0-00EF             50           1
        BANK2            0110-016F             60           1
        BANK3            0190-01EF             60           1
        CODE             0003-0003              1           2
                         00E5-00FF             1B
                         07FF-1FFF            800
        COMMON           007A-007D              4           1
        CONST            0003-0003              1           2
                         00E5-00FF             1B
                         07FF-1FFF            100
        EEDATA           2100-21FF            100           2
        ENTRY            0003-0003              1           2
                         00E5-00FF             1B
                         07FF-1FFF            100
        IDLOC            2000-2003              4           2
        RAM              006E-006F              2           1
                         00A0-00EF             50
                         0110-016F             60
                         0190-01EF             60
        SFR0             0000-001F             20           1
        SFR1             0080-009F             20           1
        SFR2             0100-010F             10           1
        SFR3             0180-018F             10           1
        STACK            0110-016F             60           1
        STRCODE          0003-0003              1           2
                         00E5-00FF             1B
                         07FF-1FFF           1801
        STRING           0003-0003              1           2
                         00E5-00FF             1B
                         07FF-1FFF            100

                                  Symbol Table

?_Get_ADC_Value                  cstackBANK0  0020
?_Get_Letter                     cstackCOMMON 0073
?___awdiv                        cstackBANK0  0020
?___awmod                        cstackBANK0  0020
Adc@callbackadc                  bssBANK0     0058
Calibrate_ADC@F1743              dataBANK0    0062
Callback_ADC@volume              cstackBANK0  0041
Callback_Rotary@dir              cstackBANK0  0041
Check_ADC@current                cstackBANK0  0049
Check_ADC@currentVolume          dataBANK0    006B
Check_ADC@value                  cstackBANK0  0047
Check_ADC@volume                 cstackBANK0  004B
Get_Letter@letter                cstackBANK0  0027
Init_ADC@call                    cstackBANK0  002B
RotaryEncoder@callback           nvBANK0      006D
RotaryEncoder@lastValue          bssBANK0     0059
Rotary_Check@A                   cstackBANK0  0046
Rotary_Check@B                   cstackBANK0  0047
Rotary_Setup@call                cstackBANK0  0021
SPI_Clear_Display@F1697          bssBANK0     004E
SPI_Clear_Display@bytes          cstackBANK0  0029
SPI_Clear_Display@display        cstackBANK0  0031
SPI_Reset_Display@display        cstackBANK0  0022
SPI_Write_Char@byte              cstackBANK0  0020
SPI_Write_Control_Word@byte      cstackBANK0  0022
SPI_Write_Control_Word@display   cstackBANK0  0021
SPI_Write_Dot@bytes              cstackBANK0  0023
SPI_Write_Dot@display            cstackBANK0  0021
SPI_Write_Dot@i                  cstackBANK0  0024
SPI_Write_Dot_String@bytes       cstackBANK0  002C
SPI_Write_Dot_String@display     cstackBANK0  002E
SPI_Write_Dot_String@i           cstackBANK0  0030
SPI_Write_Dot_Volume@data        cstackBANK0  0031
SPI_Write_Dot_Volume@display     cstackBANK0  0034
SPI_Write_Dot_Volume@i           cstackBANK0  0040
SPI_Write_Dot_Volume@newdata     cstackBANK0  0038
SPI_Write_Dot_Volume@volume      cstackBANK0  0033
SPI_Write_Letter@data            cstackBANK0  0028
SPI_Write_Letter@i               cstackBANK0  002B
Turn_On_Relais@mask              cstackBANK0  0023
Turn_On_Relais@number            cstackBANK0  0022
_ADCON0bits                      (abs)        001F
_ADCON1bits                      (abs)        009F
_ADRESH                          (abs)        001E
_ADRESL                          (abs)        009E
_ANSELHbits                      (abs)        0189
_ANSELbits                       (abs)        0188
_CARRY                           (abs)        0018
_Callback_ADC                    text15       0048
_Callback_Rotary                 text10       04C1
_Check_ADC                       text13       02C5
_EEADR                           (abs)        010D
_EECON1                          (abs)        018C
_EECON2                          (abs)        018D
_EEDATA                          (abs)        010C
_GIE                             (abs)        005F
_Get_ADC_Value                   text14       07D2
_Get_Letter                      text22       046B
_Handle_IR                       text11       05B6
_INTCONbits                      (abs)        000B
_IOCBbits                        (abs)        0096
_IR_IOC                          text32       00B0
_IR_Timer_Int                    text30       06AA
_ISR                             text29       072E
_Init_ADC                        text26       0206
_Init_IR_Receiver                text24       0640
_Init_Pot                        text28       00D4
_Loop                            text8        005C
_MaxADC                          dataCOMMON   0078
_MinADC                          bssCOMMON    0075
_OPTION_REGbits                  (abs)        0081
_OSCCON                          (abs)        008F
_PIE1bits                        (abs)        008C
_PIR1bits                        (abs)        000C
_PORTA                           (abs)        0005
_PORTB                           (abs)        0006
_PORTBbits                       (abs)        0006
_PORTC                           (abs)        0007
_PORTCbits                       (abs)        0007
_PORTD                           (abs)        0008
_PORTDbits                       (abs)        0008
_Pause_Timer                     text25       07FB
_RD                              (abs)        0C60
_Relais_Setup                    text7        00CC
_Resume_Timer                    text33       00DF
_Rotary_Check                    text9        0677
_Rotary_Setup                    text6        0082
_SPI_Clear_Display               text4        0776
_SPI_Init                        text1        03AC
_SPI_Reset_Display               text3        0709
_SPI_Write_Char                  text21       00BB
_SPI_Write_Control_Word          text2        07B6
_SPI_Write_Dot                   text5        06DA
_SPI_Write_Dot_String            text19       0602
_SPI_Write_Dot_Volume            text16       033F
_SPI_Write_Letter                text20       0797
_SSPBUF                          (abs)        0013
_SSPCONbits                      (abs)        0014
_SSPSTATbits                     (abs)        0094
_StepSize                        bssBANK0     0056
_T1CONbits                       (abs)        0010
_TMR0                            (abs)        0001
_TMR1                            (abs)        000E
_TRISA                           (abs)        0085
_TRISBbits                       (abs)        0086
_TRISCbits                       (abs)        0087
_TRISDbits                       (abs)        0088
_TRISEbits                       (abs)        0089
_Turn_On_Relais                  text12       07E7
_WR                              (abs)        0C61
_WREN                            (abs)        0C62
__CFG_BOR4V$BOR40V               (abs)        0000
__CFG_BOREN$ON                   (abs)        0000
__CFG_CP$OFF                     (abs)        0000
__CFG_CPD$OFF                    (abs)        0000
__CFG_FCMEN$OFF                  (abs)        0000
__CFG_FOSC$INTRC_NOCLKOUT        (abs)        0000
__CFG_IESO$OFF                   (abs)        0000
__CFG_LVP$ON                     (abs)        0000
__CFG_MCLRE$OFF                  (abs)        0000
__CFG_PWRTE$ON                   (abs)        0000
__CFG_WDTE$OFF                   (abs)        0000
__CFG_WRT$OFF                    (abs)        0000
__CHARACTERS                     stringtext   0112
__Habs1                          abs1         0000
__Hbank0                         bank0        0000
__Hbank1                         bank1        0000
__Hbank2                         bank2        0000
__Hbank3                         bank3        0000
__HbssBANK0                      bssBANK0     0000
__HbssCOMMON                     bssCOMMON    0000
__Hcinit                         cinit        003C
__Hclrtext                       clrtext      0000
__Hcode                          code         0000
__Hcommon                        common       0000
__Hconfig                        config       2009
__HcstackBANK0                   cstackBANK0  0000
__HcstackCOMMON                  cstackCOMMON 0000
__HdataBANK0                     dataBANK0    0000
__HdataCOMMON                    dataCOMMON   0000
__Heeprom_data                   eeprom_data  0000
__Hend_init                      end_init     0015
__Hfunctab                       functab      0048
__HidataBANK0                    idataBANK0   0000
__HidataCOMMON                   idataCOMMON  0000
__Hidloc                         idloc        0000
__Hinit                          init         0012
__Hinittext                      inittext     0000
__Hintentry                      intentry     0012
__Hmaintext                      maintext     0000
__HnvBANK0                       nvBANK0      0000
__Hpowerup                       powerup      0000
__Hram                           ram          0000
__Hreset_vec                     reset_vec    0003
__Hsfr0                          sfr0         0000
__Hsfr1                          sfr1         0000
__Hsfr2                          sfr2         0000
__Hsfr3                          sfr3         0000
__Hspace_0                       (abs)        2009
__Hspace_1                       (abs)        007A
__Hspace_2                       (abs)        0000
__Hspace_3                       (abs)        0000
__Hstack                         stack        0000
__Hstrings                       strings      0000
__Hstringtext                    stringtext   0000
__Htext                          text         0000
__Labs1                          abs1         0000
__Lbank0                         bank0        0000
__Lbank1                         bank1        0000
__Lbank2                         bank2        0000
__Lbank3                         bank3        0000
__LbssBANK0                      bssBANK0     0000
__LbssCOMMON                     bssCOMMON    0000
__Lcinit                         cinit        0015
__Lclrtext                       clrtext      0000
__Lcode                          code         0000
__Lcommon                        common       0000
__Lconfig                        config       2007
__LcstackBANK0                   cstackBANK0  0000
__LcstackCOMMON                  cstackCOMMON 0000
__LdataBANK0                     dataBANK0    0000
__LdataCOMMON                    dataCOMMON   0000
__Leeprom_data                   eeprom_data  0000
__Lend_init                      end_init     0012
__Lfunctab                       functab      003C
__LidataBANK0                    idataBANK0   0000
__LidataCOMMON                   idataCOMMON  0000
__Lidloc                         idloc        0000
__Linit                          init         0012
__Linittext                      inittext     0000
__Lintentry                      intentry     0004
__Lmaintext                      maintext     0000
__LnvBANK0                       nvBANK0      0000
__Lpowerup                       powerup      0000
__Lram                           ram          0000
__Lreset_vec                     reset_vec    0000
__Lsfr0                          sfr0         0000
__Lsfr1                          sfr1         0000
__Lsfr2                          sfr2         0000
__Lsfr3                          sfr3         0000
__Lspace_0                       (abs)        0000
__Lspace_1                       (abs)        0000
__Lspace_2                       (abs)        0000
__Lspace_3                       (abs)        0000
__Lstack                         stack        0000
__Lstrings                       strings      0000
__Lstringtext                    stringtext   0000
__Ltext                          text         0000
__S0                             (abs)        2009
__S1                             (abs)        007A
__S2                             (abs)        0000
__S3                             (abs)        0000
___awdiv                         text27       0410
___awdiv@counter                 cstackBANK0  0025
___awdiv@dividend                cstackBANK0  0022
___awdiv@divisor                 cstackBANK0  0020
___awdiv@quotient                cstackBANK0  0027
___awdiv@sign                    cstackBANK0  0026
___awmod                         text18       0569
___awmod@counter                 cstackBANK0  0025
___awmod@dividend                cstackBANK0  0022
___awmod@divisor                 cstackBANK0  0020
___awmod@sign                    cstackBANK0  0026
___bmul                          text23       006F
___bmul@multiplicand             cstackBANK0  0020
___bmul@multiplier               cstackBANK0  0023
___bmul@product                  cstackBANK0  0022
___int_sp                        stack        0000
___latbits                       (abs)        0002
___lbdiv                         text17       0753
___lbdiv@counter                 cstackBANK0  0023
___lbdiv@dividend                cstackBANK0  0022
___lbdiv@divisor                 cstackBANK0  0020
___lbdiv@quotient                cstackBANK0  0024
___sp                            stack        0000
__end_of_Callback_ADC            text15       005C
__end_of_Callback_Rotary         text10       0516
__end_of_Check_ADC               text13       033F
__end_of_Get_ADC_Value           text14       07E7
__end_of_Get_Letter              text22       04C1
__end_of_Handle_IR               text11       0602
__end_of_IR_IOC                  text32       00BB
__end_of_IR_Timer_Int            text30       06DA
__end_of_ISR                     text29       0753
__end_of_Init_ADC                text26       02C5
__end_of_Init_IR_Receiver        text24       0677
__end_of_Init_Pot                text28       00DB
__end_of_Loop                    text8        006F
__end_of_Pause_Timer             text25       07FF
__end_of_Relais_Setup            text7        00D4
__end_of_Resume_Timer            text33       00E3
__end_of_Rotary_Check            text9        06AA
__end_of_Rotary_Setup            text6        0094
__end_of_SPI_Clear_Display       text4        0797
__end_of_SPI_Init                text1        0410
__end_of_SPI_Reset_Display       text3        072E
__end_of_SPI_Write_Char          text21       00C4
__end_of_SPI_Write_Control_Word  text2        07D2
__end_of_SPI_Write_Dot           text5        0709
__end_of_SPI_Write_Dot_String    text19       0640
__end_of_SPI_Write_Dot_Volume    text16       03AC
__end_of_SPI_Write_Letter        text20       07B6
__end_of_Turn_On_Relais          text12       07FB
__end_of__CHARACTERS             stringtext   01D0
__end_of___awdiv                 text27       046B
__end_of___awmod                 text18       05B6
__end_of___bmul                  text23       0082
__end_of___lbdiv                 text17       0776
__end_of__fptable                functab      0048
__end_of__initialization         cinit        0038
__end_of__stringtab              stringtext   0112
__end_of_main                    maintext     0569
__end_ofi1_Pause_Timer           text31       00DF
__fptable                        functab      003C
__initialization                 cinit        0015
__pbssBANK0                      bssBANK0     004E
__pbssCOMMON                     bssCOMMON    0075
__pcstackBANK0                   cstackBANK0  0020
__pcstackCOMMON                  cstackCOMMON 0070
__pdataBANK0                     dataBANK0    0062
__pdataCOMMON                    dataCOMMON   0078
__pfunctab                       functab      003C
__pidataBANK0                    idataBANK0   00A5
__pidataCOMMON                   idataCOMMON  00E3
__pintentry                      intentry     0004
__pmaintext                      maintext     0516
__pnvBANK0                       nvBANK0      006D
__pstringtext                    stringtext   0100
__ptext1                         text1        03AC
__ptext10                        text10       04C1
__ptext11                        text11       05B6
__ptext12                        text12       07E7
__ptext13                        text13       02C5
__ptext14                        text14       07D2
__ptext15                        text15       0048
__ptext16                        text16       033F
__ptext17                        text17       0753
__ptext18                        text18       0569
__ptext19                        text19       0602
__ptext2                         text2        07B6
__ptext20                        text20       0797
__ptext21                        text21       00BB
__ptext22                        text22       046B
__ptext23                        text23       006F
__ptext24                        text24       0640
__ptext25                        text25       07FB
__ptext26                        text26       0206
__ptext27                        text27       0410
__ptext28                        text28       00D4
__ptext29                        text29       072E
__ptext3                         text3        0709
__ptext30                        text30       06AA
__ptext31                        text31       00DB
__ptext32                        text32       00B0
__ptext33                        text33       00DF
__ptext4                         text4        0776
__ptext5                         text5        06DA
__ptext6                         text6        0082
__ptext7                         text7        00CC
__ptext8                         text8        005C
__ptext9                         text9        0677
__size_of_Callback_ADC           (abs)        0000
__size_of_Callback_Rotary        (abs)        0000
__size_of_Check_ADC              (abs)        0000
__size_of_Get_ADC_Value          (abs)        0000
__size_of_Get_Letter             (abs)        0000
__size_of_Handle_IR              (abs)        0000
__size_of_IR_IOC                 (abs)        0000
__size_of_IR_Timer_Int           (abs)        0000
__size_of_ISR                    (abs)        0000
__size_of_Init_ADC               (abs)        0000
__size_of_Init_IR_Receiver       (abs)        0000
__size_of_Init_Pot               (abs)        0000
__size_of_Loop                   (abs)        0000
__size_of_Pause_Timer            (abs)        0000
__size_of_Relais_Setup           (abs)        0000
__size_of_Resume_Timer           (abs)        0000
__size_of_Rotary_Check           (abs)        0000
__size_of_Rotary_Setup           (abs)        0000
__size_of_SPI_Clear_Display      (abs)        0000
__size_of_SPI_Init               (abs)        0000
__size_of_SPI_Reset_Display      (abs)        0000
__size_of_SPI_Write_Char         (abs)        0000
__size_of_SPI_Write_Control_Word (abs)        0000
__size_of_SPI_Write_Dot          (abs)        0000
__size_of_SPI_Write_Dot_String   (abs)        0000
__size_of_SPI_Write_Dot_Volume   (abs)        0000
__size_of_SPI_Write_Letter       (abs)        0000
__size_of_Turn_On_Relais         (abs)        0000
__size_of___awdiv                (abs)        0000
__size_of___awmod                (abs)        0000
__size_of___bmul                 (abs)        0000
__size_of___lbdiv                (abs)        0000
__size_of__fptable               (abs)        0000
__size_of_main                   (abs)        0000
__size_ofi1_Pause_Timer          (abs)        0000
__stringbase                     stringtext   0112
__stringtab                      stringtext   0100
_currentBit                      bssCOMMON    0077
_currentChannel                  bssBANK0     005B
_currentVolume                   bssBANK0     005A
_lastByte                        bssBANK0     005C
_main                            maintext     0516
_receivedByte                    bssBANK0     005E
_receivingByte                   bssBANK0     005D
btemp                            (abs)        007E
clear_ram0                       clrtext      00C4
end_of_initialization            cinit        0038
fpbase                           functab      0041
fptable                          functab      003C
fptotal                          (abs)        0004
i1_Pause_Timer                   text31       00DB
init_fetch0                      inittext     0094
init_ram0                        inittext     0098
interrupt_function               intentry     0004
intlevel0                        functab      003C
intlevel1                        functab      003C
intlevel2                        functab      003C
intlevel3                        functab      003C
intlevel4                        functab      003C
intlevel5                        functab      003C
reset_vec                        reset_vec    0000
saved_w                          (abs)        007E
stackhi                          (abs)        0000
stacklo                          (abs)        0000
start                            init         0012
start_initialization             cinit        0015
wtemp0                           (abs)        007E


FUNCTION INFORMATION:

 *************** function _main *****************
 Defined at:
		line 488 in file "main.c"
 Parameters:    Size  Location     Type
		None
 Auto vars:     Size  Location     Type
		None
 Return value:  Size  Location     Type
                  1    wreg      void 
 Registers used:
		wreg, fsr0l, fsr0h, status,2, status,0, btemp+1, pclath, cstack
 Tracked objects:
		On entry : 
		On exit  : 
		Unchanged: 
 Data sizes:     COMMON   BANK0   BANK1   BANK3   BANK2
      Params:         0       0       0       0       0
      Locals:         0       0       0       0       0
      Temps:          0       1       0       0       0
      Totals:         0       1       0       0       0
Total ram usage:        1 bytes
 Hardware stack levels required when called:   10
 This function calls:
		_Init_ADC
		_Init_IR_Receiver
		_Loop
		_Relais_Setup
		_Rotary_Setup
		_SPI_Init
		_SPI_Write_Dot_String
 This function is called by:
		Startup code after reset
 This function uses a non-reentrant model


 *************** function _SPI_Init *****************
 Defined at:
		line 4 in file "SPILib.c"
 Parameters:    Size  Location     Type
		None
 Auto vars:     Size  Location     Type
		None
 Return value:  Size  Location     Type
                  1    wreg      void 
 Registers used:
		wreg, fsr0l, fsr0h, status,2, status,0, pclath, cstack
 Tracked objects:
		On entry : 
		On exit  : 
		Unchanged: 
 Data sizes:     COMMON   BANK0   BANK1   BANK3   BANK2
      Params:         0       0       0       0       0
      Locals:         0       0       0       0       0
      Temps:          0       1       0       0       0
      Totals:         0       1       0       0       0
Total ram usage:        1 bytes
 Hardware stack levels used:    1
 Hardware stack levels required when called:    6
 This function calls:
		_SPI_Clear_Display
		_SPI_Reset_Display
		_SPI_Write_Control_Word
 This function is called by:
		_main
 This function uses a non-reentrant model


 *************** function _SPI_Write_Control_Word *****************
 Defined at:
		line 82 in file "SPILib.c"
 Parameters:    Size  Location     Type
  byte            1    wreg     unsigned char 
  display         1    1[BANK0 ] unsigned char 
 Auto vars:     Size  Location     Type
  byte            1    2[BANK0 ] unsigned char 
 Return value:  Size  Location     Type
                  1    wreg      void 
 Registers used:
		wreg, status,2, status,0, pclath, cstack
 Tracked objects:
		On entry : 
		On exit  : 
		Unchanged: 
 Data sizes:     COMMON   BANK0   BANK1   BANK3   BANK2
      Params:         0       1       0       0       0
      Locals:         0       1       0       0       0
      Temps:          0       0       0       0       0
      Totals:         0       2       0       0       0
Total ram usage:        2 bytes
 Hardware stack levels used:    1
 Hardware stack levels required when called:    4
 This function calls:
		_SPI_Write_Char
 This function is called by:
		_SPI_Init
 This function uses a non-reentrant model


 *************** function _SPI_Reset_Display *****************
 Defined at:
		line 186 in file "SPILib.c"
 Parameters:    Size  Location     Type
  display         1    wreg     unsigned char 
 Auto vars:     Size  Location     Type
  display         1    2[BANK0 ] unsigned char 
 Return value:  Size  Location     Type
                  1    wreg      void 
 Registers used:
		wreg, status,2, status,0
 Tracked objects:
		On entry : 
		On exit  : 
		Unchanged: 
 Data sizes:     COMMON   BANK0   BANK1   BANK3   BANK2
      Params:         0       0       0       0       0
      Locals:         0       1       0       0       0
      Temps:          0       2       0       0       0
      Totals:         0       3       0       0       0
Total ram usage:        3 bytes
 Hardware stack levels used:    1
 Hardware stack levels required when called:    3
 This function calls:
		Nothing
 This function is called by:
		_SPI_Init
 This function uses a non-reentrant model


 *************** function _SPI_Clear_Display *****************
 Defined at:
		line 221 in file "SPILib.c"
 Parameters:    Size  Location     Type
  display         1    wreg     unsigned char 
 Auto vars:     Size  Location     Type
  display         1   17[BANK0 ] unsigned char 
  bytes           8    9[BANK0 ] unsigned char [8]
 Return value:  Size  Location     Type
                  1    wreg      void 
 Registers used:
		wreg, fsr0l, fsr0h, status,2, status,0, pclath, cstack
 Tracked objects:
		On entry : 
		On exit  : 
		Unchanged: 
 Data sizes:     COMMON   BANK0   BANK1   BANK3   BANK2
      Params:         0       0       0       0       0
      Locals:         0       9       0       0       0
      Temps:          0       4       0       0       0
      Totals:         0      13       0       0       0
Total ram usage:       13 bytes
 Hardware stack levels used:    1
 Hardware stack levels required when called:    5
 This function calls:
		_SPI_Write_Dot
 This function is called by:
		_SPI_Init
 This function uses a non-reentrant model


 *************** function _SPI_Write_Dot *****************
 Defined at:
		line 107 in file "SPILib.c"
 Parameters:    Size  Location     Type
  bytes           1    wreg     PTR unsigned char 
		 -> SPI_Clear_Display@bytes(8), 
  display         1    1[BANK0 ] unsigned char 
 Auto vars:     Size  Location     Type
  bytes           1    3[BANK0 ] PTR unsigned char 
		 -> SPI_Clear_Display@bytes(8), 
  i               1    4[BANK0 ] unsigned char 
 Return value:  Size  Location     Type
                  1    wreg      void 
 Registers used:
		wreg, fsr0l, fsr0h, status,2, status,0, pclath, cstack
 Tracked objects:
		On entry : 
		On exit  : 
		Unchanged: 
 Data sizes:     COMMON   BANK0   BANK1   BANK3   BANK2
      Params:         0       1       0       0       0
      Locals:         0       2       0       0       0
      Temps:          0       1       0       0       0
      Totals:         0       4       0       0       0
Total ram usage:        4 bytes
 Hardware stack levels used:    1
 Hardware stack levels required when called:    4
 This function calls:
		_SPI_Write_Char
 This function is called by:
		_SPI_Clear_Display
 This function uses a non-reentrant model


 *************** function _Rotary_Setup *****************
 Defined at:
		line 4 in file "RotaryEncoder.c"
 Parameters:    Size  Location     Type
  call            1    wreg     PTR FTN(unsigned char ,)
		 -> Callback_Rotary(1), 
 Auto vars:     Size  Location     Type
  call            1    1[BANK0 ] PTR FTN(unsigned char ,)
		 -> Callback_Rotary(1), 
 Return value:  Size  Location     Type
                  1    wreg      void 
 Registers used:
		wreg
 Tracked objects:
		On entry : 
		On exit  : 
		Unchanged: 
 Data sizes:     COMMON   BANK0   BANK1   BANK3   BANK2
      Params:         0       0       0       0       0
      Locals:         0       1       0       0       0
      Temps:          0       1       0       0       0
      Totals:         0       2       0       0       0
Total ram usage:        2 bytes
 Hardware stack levels used:    1
 Hardware stack levels required when called:    3
 This function calls:
		Nothing
 This function is called by:
		_main
 This function uses a non-reentrant model


 *************** function _Relais_Setup *****************
 Defined at:
		line 4 in file "Relais.c"
 Parameters:    Size  Location     Type
		None
 Auto vars:     Size  Location     Type
		None
 Return value:  Size  Location     Type
                  1    wreg      void 
 Registers used:
		wreg, status,2
 Tracked objects:
		On entry : 
		On exit  : 
		Unchanged: 
 Data sizes:     COMMON   BANK0   BANK1   BANK3   BANK2
      Params:         0       0       0       0       0
      Locals:         0       0       0       0       0
      Temps:          0       0       0       0       0
      Totals:         0       0       0       0       0
Total ram usage:        0 bytes
 Hardware stack levels used:    1
 Hardware stack levels required when called:    3
 This function calls:
		Nothing
 This function is called by:
		_main
 This function uses a non-reentrant model


 *************** function _Loop *****************
 Defined at:
		line 512 in file "main.c"
 Parameters:    Size  Location     Type
		None
 Auto vars:     Size  Location     Type
		None
 Return value:  Size  Location     Type
                  1    wreg      void 
 Registers used:
		wreg, fsr0l, fsr0h, status,2, status,0, btemp+1, pclath, cstack
 Tracked objects:
		On entry : 
		On exit  : 
		Unchanged: 
 Data sizes:     COMMON   BANK0   BANK1   BANK3   BANK2
      Params:         0       0       0       0       0
      Locals:         0       0       0       0       0
      Temps:          0       0       0       0       0
      Totals:         0       0       0       0       0
Total ram usage:        0 bytes
 Hardware stack levels used:    1
 Hardware stack levels required when called:    9
 This function calls:
		_Check_ADC
		_Handle_IR
		_Rotary_Check
 This function is called by:
		_main
 This function uses a non-reentrant model


 *************** function _Rotary_Check *****************
 Defined at:
		line 16 in file "RotaryEncoder.c"
 Parameters:    Size  Location     Type
		None
 Auto vars:     Size  Location     Type
  B               1   39[BANK0 ] unsigned char 
  A               1   38[BANK0 ] unsigned char 
 Return value:  Size  Location     Type
                  1    wreg      void 
 Registers used:
		wreg, fsr0l, fsr0h, status,2, status,0, btemp+1, pclath, cstack
 Tracked objects:
		On entry : 
		On exit  : 
		Unchanged: 
 Data sizes:     COMMON   BANK0   BANK1   BANK3   BANK2
      Params:         0       0       0       0       0
      Locals:         0       2       0       0       0
      Temps:          0       2       0       0       0
      Totals:         0       4       0       0       0
Total ram usage:        4 bytes
 Hardware stack levels used:    1
 Hardware stack levels required when called:    8
 This function calls:
		Absolute function
		_Callback_Rotary
 This function is called by:
		_Loop
 This function uses a non-reentrant model


 *************** function _Callback_Rotary *****************
 Defined at:
		line 519 in file "main.c"
 Parameters:    Size  Location     Type
  dir             1   33[BANK0 ] unsigned char 
 Auto vars:     Size  Location     Type
		None
 Return value:  Size  Location     Type
                  1    wreg      void 
 Registers used:
		wreg, fsr0l, fsr0h, status,2, status,0, btemp+1, pclath, cstack
 Tracked objects:
		On entry : 
		On exit  : 
		Unchanged: 
 Data sizes:     COMMON   BANK0   BANK1   BANK3   BANK2
      Params:         0       1       0       0       0
      Locals:         0       0       0       0       0
      Temps:          0       2       0       0       0
      Totals:         0       3       0       0       0
Total ram usage:        3 bytes
 Hardware stack levels used:    1
 Hardware stack levels required when called:    7
 This function calls:
		_SPI_Write_Dot_Volume
		_Turn_On_Relais
 This function is called by:
		_main
		_Rotary_Check
 This function uses a non-reentrant model


 *************** function _Handle_IR *****************
 Defined at:
		line 588 in file "main.c"
 Parameters:    Size  Location     Type
		None
 Auto vars:     Size  Location     Type
		None
 Return value:  Size  Location     Type
                  1    wreg      void 
 Registers used:
		wreg, fsr0l, fsr0h, status,2, status,0, btemp+1, pclath, cstack
 Tracked objects:
		On entry : 
		On exit  : 
		Unchanged: 
 Data sizes:     COMMON   BANK0   BANK1   BANK3   BANK2
      Params:         0       0       0       0       0
      Locals:         0       0       0       0       0
      Temps:          0       1       0       0       0
      Totals:         0       1       0       0       0
Total ram usage:        1 bytes
 Hardware stack levels used:    1
 Hardware stack levels required when called:    7
 This function calls:
		_SPI_Write_Dot_Volume
		_Turn_On_Relais
 This function is called by:
		_Loop
 This function uses a non-reentrant model


 *************** function _Turn_On_Relais *****************
 Defined at:
		line 24 in file "Relais.c"
 Parameters:    Size  Location     Type
  number          1    wreg     unsigned char 
 Auto vars:     Size  Location     Type
  number          1    2[BANK0 ] unsigned char 
  mask            1    3[BANK0 ] unsigned char 
 Return value:  Size  Location     Type
                  1    wreg      void 
 Registers used:
		wreg, status,2, status,0
 Tracked objects:
		On entry : 
		On exit  : 
		Unchanged: 
 Data sizes:     COMMON   BANK0   BANK1   BANK3   BANK2
      Params:         0       0       0       0       0
      Locals:         0       2       0       0       0
      Temps:          0       2       0       0       0
      Totals:         0       4       0       0       0
Total ram usage:        4 bytes
 Hardware stack levels used:    1
 Hardware stack levels required when called:    3
 This function calls:
		Nothing
 This function is called by:
		_Callback_Rotary
		_Handle_IR
		_Select_Relais
		_Toggle_Relais
 This function uses a non-reentrant model


 *************** function _Check_ADC *****************
 Defined at:
		line 56 in file "Adc.c"
 Parameters:    Size  Location     Type
		None
 Auto vars:     Size  Location     Type
  volume          2   43[BANK0 ] int 
  current         2   41[BANK0 ] int 
  value           2   39[BANK0 ] int 
 Return value:  Size  Location     Type
                  1    wreg      void 
 Registers used:
		wreg, fsr0l, fsr0h, status,2, status,0, btemp+1, pclath, cstack
 Tracked objects:
		On entry : 
		On exit  : 
		Unchanged: 
 Data sizes:     COMMON   BANK0   BANK1   BANK3   BANK2
      Params:         0       0       0       0       0
      Locals:         0       6       0       0       0
      Temps:          0       3       0       0       0
      Totals:         0       9       0       0       0
Total ram usage:        9 bytes
 Hardware stack levels used:    1
 Hardware stack levels required when called:    8
 This function calls:
		Absolute function
		_Callback_ADC
		_Get_ADC_Value
 This function is called by:
		_Loop
 This function uses a non-reentrant model


 *************** function _Get_ADC_Value *****************
 Defined at:
		line 40 in file "Adc.c"
 Parameters:    Size  Location     Type
		None
 Auto vars:     Size  Location     Type
		None
 Return value:  Size  Location     Type
                  2    0[BANK0 ] int 
 Registers used:
		wreg
 Tracked objects:
		On entry : 
		On exit  : 
		Unchanged: 
 Data sizes:     COMMON   BANK0   BANK1   BANK3   BANK2
      Params:         0       2       0       0       0
      Locals:         0       0       0       0       0
      Temps:          0       1       0       0       0
      Totals:         0       3       0       0       0
Total ram usage:        3 bytes
 Hardware stack levels used:    1
 Hardware stack levels required when called:    3
 This function calls:
		Nothing
 This function is called by:
		_Check_ADC
		_Calibrate_ADC
 This function uses a non-reentrant model


 *************** function _Callback_ADC *****************
 Defined at:
		line 533 in file "main.c"
 Parameters:    Size  Location     Type
  volume          2   33[BANK0 ] int 
 Auto vars:     Size  Location     Type
		None
 Return value:  Size  Location     Type
                  1    wreg      void 
 Registers used:
		wreg, fsr0l, fsr0h, status,2, status,0, btemp+1, pclath, cstack
 Tracked objects:
		On entry : 
		On exit  : 
		Unchanged: 
 Data sizes:     COMMON   BANK0   BANK1   BANK3   BANK2
      Params:         0       2       0       0       0
      Locals:         0       0       0       0       0
      Temps:          0       1       0       0       0
      Totals:         0       3       0       0       0
Total ram usage:        3 bytes
 Hardware stack levels used:    1
 Hardware stack levels required when called:    7
 This function calls:
		_SPI_Write_Dot_Volume
 This function is called by:
		_main
		_Check_ADC
 This function uses a non-reentrant model


 *************** function _SPI_Write_Dot_Volume *****************
 Defined at:
		line 162 in file "SPILib.c"
 Parameters:    Size  Location     Type
  data            2   17[BANK0 ] PTR unsigned char 
		 -> STR_7(9), STR_4(9), STR_3(9), 
  volume          1   19[BANK0 ] unsigned char 
  display         1   20[BANK0 ] unsigned char 
 Auto vars:     Size  Location     Type
  newdata         8   24[BANK0 ] unsigned char [8]
  i               1   32[BANK0 ] unsigned char 
 Return value:  Size  Location     Type
                  1    wreg      void 
 Registers used:
		wreg, fsr0l, fsr0h, status,2, status,0, btemp+1, pclath, cstack
 Tracked objects:
		On entry : 
		On exit  : 
		Unchanged: 
 Data sizes:     COMMON   BANK0   BANK1   BANK3   BANK2
      Params:         0       4       0       0       0
      Locals:         0       9       0       0       0
      Temps:          0       3       0       0       0
      Totals:         0      16       0       0       0
Total ram usage:       16 bytes
 Hardware stack levels used:    1
 Hardware stack levels required when called:    6
 This function calls:
		_SPI_Write_Dot_String
		___awmod
		___lbdiv
 This function is called by:
		_Callback_Rotary
		_Callback_ADC
		_Handle_IR
 This function uses a non-reentrant model


 *************** function ___lbdiv *****************
 Defined at:
		line 4 in file "/opt/microchip/xc8/v1.44/sources/common/lbdiv.c"
 Parameters:    Size  Location     Type
  dividend        1    wreg     unsigned char 
  divisor         1    0[BANK0 ] unsigned char 
 Auto vars:     Size  Location     Type
  dividend        1    2[BANK0 ] unsigned char 
  quotient        1    4[BANK0 ] unsigned char 
  counter         1    3[BANK0 ] unsigned char 
 Return value:  Size  Location     Type
                  1    wreg      unsigned char 
 Registers used:
		wreg, status,2, status,0
 Tracked objects:
		On entry : 
		On exit  : 
		Unchanged: 
 Data sizes:     COMMON   BANK0   BANK1   BANK3   BANK2
      Params:         0       1       0       0       0
      Locals:         0       3       0       0       0
      Temps:          0       1       0       0       0
      Totals:         0       5       0       0       0
Total ram usage:        5 bytes
 Hardware stack levels used:    1
 Hardware stack levels required when called:    3
 This function calls:
		Nothing
 This function is called by:
		_SPI_Write_Dot_Volume
 This function uses a non-reentrant model


 *************** function ___awmod *****************
 Defined at:
		line 6 in file "/opt/microchip/xc8/v1.44/sources/common/awmod.c"
 Parameters:    Size  Location     Type
  divisor         2    0[BANK0 ] int 
  dividend        2    2[BANK0 ] int 
 Auto vars:     Size  Location     Type
  sign            1    6[BANK0 ] unsigned char 
  counter         1    5[BANK0 ] unsigned char 
 Return value:  Size  Location     Type
                  2    0[BANK0 ] int 
 Registers used:
		wreg, status,2, status,0
 Tracked objects:
		On entry : 
		On exit  : 
		Unchanged: 
 Data sizes:     COMMON   BANK0   BANK1   BANK3   BANK2
      Params:         0       4       0       0       0
      Locals:         0       2       0       0       0
      Temps:          0       1       0       0       0
      Totals:         0       7       0       0       0
Total ram usage:        7 bytes
 Hardware stack levels used:    1
 Hardware stack levels required when called:    3
 This function calls:
		Nothing
 This function is called by:
		_SPI_Write_Dot_Volume
		_Calibrate_ADC
 This function uses a non-reentrant model


 *************** function _SPI_Write_Dot_String *****************
 Defined at:
		line 136 in file "SPILib.c"
 Parameters:    Size  Location     Type
  bytes           2   12[BANK0 ] PTR unsigned char 
		 -> SPI_Write_Dot_Volume@newdata(8), Calibrate_ADC@message(9), STR_6(9), STR_5(9), 
		 -> STR_2(9), STR_1(9), 
  display         1   14[BANK0 ] unsigned char 
 Auto vars:     Size  Location     Type
  i               1   16[BANK0 ] unsigned char 
 Return value:  Size  Location     Type
                  1    wreg      void 
 Registers used:
		wreg, fsr0l, fsr0h, status,2, status,0, btemp+1, pclath, cstack
 Tracked objects:
		On entry : 
		On exit  : 
		Unchanged: 
 Data sizes:     COMMON   BANK0   BANK1   BANK3   BANK2
      Params:         0       3       0       0       0
      Locals:         0       1       0       0       0
      Temps:          0       1       0       0       0
      Totals:         0       5       0       0       0
Total ram usage:        5 bytes
 Hardware stack levels used:    1
 Hardware stack levels required when called:    5
 This function calls:
		_Get_Letter
		_SPI_Write_Letter
 This function is called by:
		_main
		_SPI_Write_Dot_Volume
		_Calibrate_ADC
 This function uses a non-reentrant model


 *************** function _SPI_Write_Letter *****************
 Defined at:
		line 179 in file "SPILib.c"
 Parameters:    Size  Location     Type
  data            2    8[BANK0 ] PTR unsigned char 
		 -> _CHARACTERS(190), 
 Auto vars:     Size  Location     Type
  i               1   11[BANK0 ] unsigned char 
 Return value:  Size  Location     Type
                  1    wreg      void 
 Registers used:
		wreg, fsr0l, fsr0h, status,2, status,0, btemp+1, pclath, cstack
 Tracked objects:
		On entry : 
		On exit  : 
		Unchanged: 
 Data sizes:     COMMON   BANK0   BANK1   BANK3   BANK2
      Params:         0       2       0       0       0
      Locals:         0       1       0       0       0
      Temps:          0       1       0       0       0
      Totals:         0       4       0       0       0
Total ram usage:        4 bytes
 Hardware stack levels used:    1
 Hardware stack levels required when called:    4
 This function calls:
		_SPI_Write_Char
 This function is called by:
		_SPI_Write_Dot_String
 This function uses a non-reentrant model


 *************** function _SPI_Write_Char *****************
 Defined at:
		line 68 in file "SPILib.c"
 Parameters:    Size  Location     Type
  byte            1    wreg     unsigned char 
 Auto vars:     Size  Location     Type
  byte            1    0[BANK0 ] unsigned char 
 Return value:  Size  Location     Type
                  1    wreg      void 
 Registers used:
		wreg
 Tracked objects:
		On entry : 
		On exit  : 
		Unchanged: 
 Data sizes:     COMMON   BANK0   BANK1   BANK3   BANK2
      Params:         0       0       0       0       0
      Locals:         0       1       0       0       0
      Temps:          0       0       0       0       0
      Totals:         0       1       0       0       0
Total ram usage:        1 bytes
 Hardware stack levels used:    1
 Hardware stack levels required when called:    3
 This function calls:
		Nothing
 This function is called by:
		_SPI_Write_Control_Word
		_SPI_Write_Dot
		_SPI_Write_Letter
 This function uses a non-reentrant model


 *************** function _Get_Letter *****************
 Defined at:
		line 227 in file "SPILib.c"
 Parameters:    Size  Location     Type
  letter          1    wreg     unsigned char 
 Auto vars:     Size  Location     Type
  letter          1    7[BANK0 ] unsigned char 
 Return value:  Size  Location     Type
                  2    3[COMMON] PTR unsigned char 
 Registers used:
		wreg, status,2, status,0, pclath, cstack
 Tracked objects:
		On entry : 
		On exit  : 
		Unchanged: 
 Data sizes:     COMMON   BANK0   BANK1   BANK3   BANK2
      Params:         0       0       0       0       0
      Locals:         0       1       0       0       0
      Temps:          0       3       0       0       0
      Totals:         0       4       0       0       0
Total ram usage:        4 bytes
 Hardware stack levels used:    1
 Hardware stack levels required when called:    4
 This function calls:
		___bmul
 This function is called by:
		_SPI_Write_Dot_String
 This function uses a non-reentrant model


 *************** function ___bmul *****************
 Defined at:
		line 4 in file "/opt/microchip/xc8/v1.44/sources/common/Umul8.c"
 Parameters:    Size  Location     Type
  multiplier      1    wreg     unsigned char 
  multiplicand    1    0[BANK0 ] unsigned char 
 Auto vars:     Size  Location     Type
  multiplier      1    3[BANK0 ] unsigned char 
  product         1    2[BANK0 ] unsigned char 
 Return value:  Size  Location     Type
                  1    wreg      unsigned char 
 Registers used:
		wreg, status,2, status,0
 Tracked objects:
		On entry : 
		On exit  : 
		Unchanged: 
 Data sizes:     COMMON   BANK0   BANK1   BANK3   BANK2
      Params:         0       1       0       0       0
      Locals:         0       2       0       0       0
      Temps:          0       1       0       0       0
      Totals:         0       4       0       0       0
Total ram usage:        4 bytes
 Hardware stack levels used:    1
 Hardware stack levels required when called:    3
 This function calls:
		Nothing
 This function is called by:
		_Get_Letter
 This function uses a non-reentrant model


 *************** function _Init_IR_Receiver *****************
 Defined at:
		line 3 in file "IRReceiver.c"
 Parameters:    Size  Location     Type
		None
 Auto vars:     Size  Location     Type
		None
 Return value:  Size  Location     Type
                  1    wreg      void 
 Registers used:
		wreg, status,2, status,0, pclath, cstack
 Tracked objects:
		On entry : 
		On exit  : 
		Unchanged: 
 Data sizes:     COMMON   BANK0   BANK1   BANK3   BANK2
      Params:         0       0       0       0       0
      Locals:         0       0       0       0       0
      Temps:          0       0       0       0       0
      Totals:         0       0       0       0       0
Total ram usage:        0 bytes
 Hardware stack levels used:    1
 Hardware stack levels required when called:    4
 This function calls:
		_Pause_Timer
 This function is called by:
		_main
 This function uses a non-reentrant model


 *************** function _Pause_Timer *****************
 Defined at:
		line 88 in file "IRReceiver.c"
 Parameters:    Size  Location     Type
		None
 Auto vars:     Size  Location     Type
		None
 Return value:  Size  Location     Type
                  1    wreg      void 
 Registers used:
		None
 Tracked objects:
		On entry : 
		On exit  : 
		Unchanged: 
 Data sizes:     COMMON   BANK0   BANK1   BANK3   BANK2
      Params:         0       0       0       0       0
      Locals:         0       0       0       0       0
      Temps:          0       0       0       0       0
      Totals:         0       0       0       0       0
Total ram usage:        0 bytes
 Hardware stack levels used:    1
 Hardware stack levels required when called:    3
 This function calls:
		Nothing
 This function is called by:
		_Init_IR_Receiver
 This function uses a non-reentrant model


 *************** function _Init_ADC *****************
 Defined at:
		line 4 in file "Adc.c"
 Parameters:    Size  Location     Type
  call            1    wreg     PTR FTN(int ,)void 
		 -> Callback_ADC(1), 
 Auto vars:     Size  Location     Type
  call            1   11[BANK0 ] PTR FTN(int ,)void 
		 -> Callback_ADC(1), 
 Return value:  Size  Location     Type
                  1    wreg      void 
 Registers used:
		wreg, status,2, status,0, btemp+1, pclath, cstack
 Tracked objects:
		On entry : 
		On exit  : 
		Unchanged: 
 Data sizes:     COMMON   BANK0   BANK1   BANK3   BANK2
      Params:         0       0       0       0       0
      Locals:         0       1       0       0       0
      Temps:          0       2       0       0       0
      Totals:         0       3       0       0       0
Total ram usage:        3 bytes
 Hardware stack levels used:    1
 Hardware stack levels required when called:    4
 This function calls:
		_Init_Pot
		___awdiv
 This function is called by:
		_main
 This function uses a non-reentrant model


 *************** function ___awdiv *****************
 Defined at:
		line 6 in file "/opt/microchip/xc8/v1.44/sources/common/awdiv.c"
 Parameters:    Size  Location     Type
  divisor         2    0[BANK0 ] int 
  dividend        2    2[BANK0 ] int 
 Auto vars:     Size  Location     Type
  quotient        2    7[BANK0 ] int 
  sign            1    6[BANK0 ] unsigned char 
  counter         1    5[BANK0 ] unsigned char 
 Return value:  Size  Location     Type
                  2    0[BANK0 ] int 
 Registers used:
		wreg, status,2, status,0
 Tracked objects:
		On entry : 
		On exit  : 
		Unchanged: 
 Data sizes:     COMMON   BANK0   BANK1   BANK3   BANK2
      Params:         0       4       0       0       0
      Locals:         0       4       0       0       0
      Temps:          0       1       0       0       0
      Totals:         0       9       0       0       0
Total ram usage:        9 bytes
 Hardware stack levels used:    1
 Hardware stack levels required when called:    3
 This function calls:
		Nothing
 This function is called by:
		_Init_ADC
		_Calibrate_ADC
		_Get_Volume
 This function uses a non-reentrant model


 *************** function _Init_Pot *****************
 Defined at:
		line 35 in file "Adc.c"
 Parameters:    Size  Location     Type
		None
 Auto vars:     Size  Location     Type
		None
 Return value:  Size  Location     Type
                  1    wreg      void 
 Registers used:
		None
 Tracked objects:
		On entry : 
		On exit  : 
		Unchanged: 
 Data sizes:     COMMON   BANK0   BANK1   BANK3   BANK2
      Params:         0       0       0       0       0
      Locals:         0       0       0       0       0
      Temps:          0       0       0       0       0
      Totals:         0       0       0       0       0
Total ram usage:        0 bytes
 Hardware stack levels used:    1
 Hardware stack levels required when called:    3
 This function calls:
		Nothing
 This function is called by:
		_Init_ADC
 This function uses a non-reentrant model


 *************** function _ISR *****************
 Defined at:
		line 624 in file "main.c"
 Parameters:    Size  Location     Type
		None
 Auto vars:     Size  Location     Type
		None
 Return value:  Size  Location     Type
                  1    wreg      void 
 Registers used:
		wreg, status,2, status,0, pclath, cstack
 Tracked objects:
		On entry : 
		On exit  : 
		Unchanged: 
 Data sizes:     COMMON   BANK0   BANK1   BANK3   BANK2
      Params:         0       0       0       0       0
      Locals:         0       0       0       0       0
      Temps:          4       0       0       0       0
      Totals:         4       0       0       0       0
Total ram usage:        4 bytes
 Hardware stack levels used:    1
 Hardware stack levels required when called:    2
 This function calls:
		_IR_IOC
		_IR_Timer_Int
 This function is called by:
		Interrupt level 1
 This function uses a non-reentrant model


 *************** function _IR_Timer_Int *****************
 Defined at:
		line 58 in file "IRReceiver.c"
 Parameters:    Size  Location     Type
		None
 Auto vars:     Size  Location     Type
		None
 Return value:  Size  Location     Type
                  1    wreg      void 
 Registers used:
		wreg, status,2, status,0, pclath, cstack
 Tracked objects:
		On entry : 
		On exit  : 
		Unchanged: 
 Data sizes:     COMMON   BANK0   BANK1   BANK3   BANK2
      Params:         0       0       0       0       0
      Locals:         0       0       0       0       0
      Temps:          1       0       0       0       0
      Totals:         1       0       0       0       0
Total ram usage:        1 bytes
 Hardware stack levels used:    1
 Hardware stack levels required when called:    1
 This function calls:
		i1_Pause_Timer
 This function is called by:
		_ISR
 This function uses a non-reentrant model


 *************** function i1_Pause_Timer *****************
 Defined at:
		line 88 in file "IRReceiver.c"
 Parameters:    Size  Location     Type
		None
 Auto vars:     Size  Location     Type
		None
 Return value:  Size  Location     Type
                  1    wreg      void 
 Registers used:
		None
 Tracked objects:
		On entry : 
		On exit  : 
		Unchanged: 
 Data sizes:     COMMON   BANK0   BANK1   BANK3   BANK2
      Params:         0       0       0       0       0
      Locals:         0       0       0       0       0
      Temps:          0       0       0       0       0
      Totals:         0       0       0       0       0
Total ram usage:        0 bytes
 Hardware stack levels used:    1
 This function calls:
		Nothing
 This function is called by:
		_IR_Timer_Int
 This function uses a non-reentrant model


 *************** function _IR_IOC *****************
 Defined at:
		line 44 in file "IRReceiver.c"
 Parameters:    Size  Location     Type
		None
 Auto vars:     Size  Location     Type
		None
 Return value:  Size  Location     Type
                  1    wreg      void 
 Registers used:
		wreg, status,2, status,0, pclath, cstack
 Tracked objects:
		On entry : 
		On exit  : 
		Unchanged: 
 Data sizes:     COMMON   BANK0   BANK1   BANK3   BANK2
      Params:         0       0       0       0       0
      Locals:         0       0       0       0       0
      Temps:          0       0       0       0       0
      Totals:         0       0       0       0       0
Total ram usage:        0 bytes
 Hardware stack levels used:    1
 Hardware stack levels required when called:    1
 This function calls:
		_Resume_Timer
 This function is called by:
		_ISR
 This function uses a non-reentrant model


 *************** function _Resume_Timer *****************
 Defined at:
		line 92 in file "IRReceiver.c"
 Parameters:    Size  Location     Type
		None
 Auto vars:     Size  Location     Type
		None
 Return value:  Size  Location     Type
                  1    wreg      void 
 Registers used:
		None
 Tracked objects:
		On entry : 
		On exit  : 
		Unchanged: 
 Data sizes:     COMMON   BANK0   BANK1   BANK3   BANK2
      Params:         0       0       0       0       0
      Locals:         0       0       0       0       0
      Temps:          0       0       0       0       0
      Totals:         0       0       0       0       0
Total ram usage:        0 bytes
 Hardware stack levels used:    1
 This function calls:
		Nothing
 This function is called by:
		_IR_IOC
 This function uses a non-reentrant model



MODULE INFORMATION

Module		Function		Class		Link	Load	Size
/opt/microchip/xc8/v1.44/sources/common/lbdiv.c
		___lbdiv       		CODE           	0753	0000	36

/opt/microchip/xc8/v1.44/sources/common/lbdiv.c estimated size: 36

RotaryEncoder.c
		_Rotary_Check  		CODE           	0677	0000	52
		_Rotary_Setup  		CODE           	0082	0000	19

RotaryEncoder.c estimated size: 71

/opt/microchip/xc8/v1.44/sources/common/awmod.c
		___awmod       		CODE           	0569	0000	78

/opt/microchip/xc8/v1.44/sources/common/awmod.c estimated size: 78

/opt/microchip/xc8/v1.44/sources/common/Umul8.c
		___bmul        		CODE           	006F	0000	20

/opt/microchip/xc8/v1.44/sources/common/Umul8.c estimated size: 20

Adc.c
		_Init_ADC      		CODE           	0206	0000	192
		_Check_ADC     		CODE           	02C5	0000	123
		_Init_Pot      		CODE           	00D4	0000	8
		_Get_ADC_Value 		CODE           	07D2	0000	22

Adc.c estimated size: 345

shared
		__stringtab    		STRCODE        	0100	0000	19
		__initialization		CODE           	0015	0000	36
		__fptable      		ENTRY          	003C	0000	13
		i1_Pause_Timer 		CODE           	00DB	0000	5
		__CHARACTERS   		STRCODE        	0112	0000	191

shared estimated size: 264

/opt/microchip/xc8/v1.44/sources/common/awdiv.c
		___awdiv       		CODE           	0410	0000	92

/opt/microchip/xc8/v1.44/sources/common/awdiv.c estimated size: 92

IRReceiver.c
		_IR_Timer_Int  		CODE           	06AA	0000	49
		_Resume_Timer  		CODE           	00DF	0000	5
		_IR_IOC        		CODE           	00B0	0000	12
		_Init_IR_Receiver		CODE           	0640	0000	56
		_Pause_Timer   		CODE           	07FB	0000	5

IRReceiver.c estimated size: 127

SPILib.c
		_SPI_Write_Control_Word		CODE           	07B6	0000	29
		_SPI_Reset_Display		CODE           	0709	0000	38
		_SPI_Write_Dot 		CODE           	06DA	0000	48
		_SPI_Clear_Display		CODE           	0776	0000	34
		_SPI_Write_Dot_Volume		CODE           	033F	0000	110
		_SPI_Write_Letter		CODE           	0797	0000	32
		_SPI_Write_Dot_String		CODE           	0602	0000	63
		_SPI_Init      		CODE           	03AC	0000	101
		_SPI_Write_Char		CODE           	00BB	0000	10
		_Get_Letter    		CODE           	046B	0000	87

SPILib.c estimated size: 552

Relais.c
		_Relais_Setup  		CODE           	00CC	0000	9
		_Turn_On_Relais		CODE           	07E7	0000	21

Relais.c estimated size: 30

main.c
		_ISR           		CODE           	072E	0000	38
		_Callback_ADC  		CODE           	0048	0000	21
		_main          		CODE           	0516	0000	84
		_Loop          		CODE           	005C	0000	20
		_Callback_Rotary		CODE           	04C1	0000	86
		_Handle_IR     		CODE           	05B6	0000	77

main.c estimated size: 326

