:060000000A128A11122809
:10000800FE00030EF1000408F2000A08F300831250
:1000180003137F08F4000A128A112E2F0A128A117C
:10002800152883136D30FD000030FE00A530FF0059
:10003800623084000A128A1198200A128A110A1260
:100048008A11E3200A128A11F8000A128A11E420A0
:100058000A128A11F9004E30840062300A128A119D
:10006800C420F501F601F70183010A128A11162D41
:10007800FF0000308A007F08820741280A128A118F
:1000880048280A128A11C12C831203134108C3009D
:100098004308DA00D030B1008130B2004108C30013
:1000A8004308B300B401B40A0A128A113F230800B6
:1000B8000A128A11C5220A128A110A128A1177268F
:1000C8000A128A11831203135E08031908000A1220
:1000D8008A11B625080083120313A300A201231C6A
:1000E80079282008A1002108A2070310A00D0310F9
:1000F800A30C2308031D7328220808008312031386
:10010800A100831603178911891283160313061297
:100118008612831203132108A0002008ED000800AE
:100128007E088A007F08820094200A128A118000C3
:10013800840A04087D0603190034FF0A0319FE0A1D
:10014800982820342034203420342034203420349B
:1001580020340034FF34FF340B1083120313061CC1
:100168000800BE3081000A128A11DF2008008312BD
:100178000313A000200893008C1DC0288C110800D0
:1001880064008001840A0406031900340406C528A3
:100198008316031385010F308312031385000800AB
:1001A8008316031309158316031788170800831687
:1001B8000313811608008316031381120800FF3405
:0201C8000334FE
:10020000FF1B0A2983137F1883170008840A031928
:10021000FF0A08007F087F398A000408840A03194E
:10022000FF0A82007E340934093409347E347E3476
:1002300049344934493436343E344134413441340C
:1002400022347F344134413441343E347F344934A4
:100250004934493441347F34093409340934013490
:100260003E3441344134513432347F34083408341C
:1002700008347F34003441347F3441340034203436
:100280004034403440343F347F3408341434223412
:1002900041347F3440344034403440347F3402347D
:1002A0000C3402347F347F340434083410347F3407
:1002B0003E344134413441343E347F3409340934CE
:1002C000093406343E344134513421345E347F34B1
:1002D00009341934293446342634493449344934EC
:1002E0003234013401347F34013401343F3440343A
:1002F000403440343F340734183460341834073401
:100300007F342034183420347F3463341434083478
:1003100014346334033404347834043403346134DF
:10032000513449344534433400340034003400340B
:1003300000343E345134493445343E340034423480
:100340007F344034003462345134493449344634C3
:100350002234413449344934363418341434123494
:100360007F341034273445344534453439343C34F3
:100370004A34493449343034013471340934053451
:100380000334363449344934493436340634493434
:10039000493429341E3400343634363400340034C1
:1003A00056344F344C343A34203420342034203402
:1003B00000345534533445345234203420342034FE
:1003C000203400344334483441344E343A342034F9
:1003D000203420340034483445344C344C344F34C9
:1003E00020342034203400345334453454345534CC
:1003F00050342034203420340034533454344134C5
:1004000052345434453444342034003483120313BA
:10041000AB003F309F051F08C3391C389F001F14D5
:10042000831603139F170A128A11D4200A128A1105
:10043000F501F601FF30F8000330F90006308312B1
:1004400003178D003F3083120313A9002908831678
:1004500003178C050C148130831203170C06031D3F
:100460009F2A02308D003F3083120313A900290810
:10047000831603178C050C14831203170C088312C0
:100480000313A900AA012908F5070318F60A2A0888
:10049000F6070330831203178D003F3083120313D6
:1004A000A9002908831603178C050C14831203175F
:1004B0000C0883120313A900AA012908AA00A901A4
:1004C0002908F5070318F60A2A08F607F801F901C2
:1004D0000430831203178D003F3083120313A900E9
:1004E0002908831603178C050C14831203170C08B4
:1004F00083120313A900AA012908F8070318F90AAF
:100500002A08F9070530831203178D003F30831244
:100510000313A9002908831603178C050C148312F2
:1005200003170C0883120313A900AA012908AA00C3
:10053000A9012908F8070318F90A2A08F90732302F
:100540000313A0000030A1007509A9007609AA00D4
:10055000A90A0319AA0A78082907A200790803182A
:10056000790A2A07A3000A128A111024831203139E
:100570002008FE3ED60021080318013EFF3ED700AA
:100580002B08A9002908D80008000A128A11D227CE
:100590000A128A11831203132108C8002008C70019
:1005A000CB01CC017608CA007508C9004A08803A18
:1005B000C4004808803A4402031DE02A4708490263
:1005C000031C122B831203135608C9070318CA0A07
:1005D0005708CA074908023EC4004A080318013EEA
:1005E000003EC5004808803AC6004508803A4602E9
:1005F000031DFC2A44084702031C08000230831232
:100600000313C9070318CA0A0030CA070130CB0711
:100610000318CC0A0030CC0732304B064C040319C7
:10062000282BD62A8312031356084907C4005708FB
:100630000318570A4A07C5004808803AC60045080B
:10064000803A4602031D262B440847020318E22A7B
:10065000831203136C084C06031D302B6B084B06EA
:10066000031908004C08EC004B08EB004C08C200D2
:100670004B08C10058080A128A113C200800831256
:100680000313C001083040020318612B40083107F2
:10069000840032080318320AFF000A128A1100216E
:1006A0000A128A11B5004008383E840035088313C9
:1006B00080000130B5003508C00708304002031C37
:1006C000462BC001043040020318A02B3308031D41
:1006D0006C2B4008031DA02B0A30A0000030A100A5
:1006E0003308B500B6013508A2003608A3000A1287
:1006F0008A1169250A128A11831203132008303ED9
:10070000B7004003FF3A073E383E840037088313A2
:1007100080000A30B5003508A00033080A128A119B
:1007200053270A128A1183120313B6003608B30046
:100730000130B5003508C00704304002031C662BA9
:100740003830AC000030AD003408B5003508AE00DC
:100750000A128A1102260800831603138C110B1744
:100760008B17831203131412F030940583160313AE
:10077000141787118712071107120713871308111F
:1007800008120813881383120313880187010716C0
:1007900008160715081594168C1102300A128A11D2
:1007A00009270A128A1101300A128A1109270A122E
:1007B0008A1102300A128A1176270A128A11013030
:1007C0000A128A1176270A128A1102308312031341
:1007D000B2003208A10081300A128A11B6270A122B
:1007E0008A11023083120313B2003208A1007F3055
:1007F0000A128A11B6270A128A1183120313A10161
:10080000A10A81300A128A11B6270A128A118312AC
:100810000313A101A10A7F300A128A11B62708002A
:1008200083120313A601A11F1C2CA009A109A00A71
:100830000319A10AA601A60AA31F272CA209A3092E
:10084000A20A0319A30A0130A4002408A606A701DE
:10085000A8012008210403195E2CA501A50AA11BEB
:100860003D2C01300310A00DA10DFF3E031D322CC5
:100870000130A4002408A5072F2C01300310A70D78
:10088000A80DFF3E031D3E2C21082302031D4A2C08
:1008900020082202031C532C2008A2022108031C5A
:1008A000A303A302271401300310A10CA00CFF3EE8
:1008B000031D542C0130A502031D3D2C26080319ED
:1008C000662CA709A809A70A0319A80A2808A100E5
:1008D0002708A000080083120313A7004130270255
:1008E000031C8C2C5B30270203188C2C0530A400D1
:1008F0002408A0002708BF3E0A128A116F20123E6A
:1009000083120313A50081300318013EA6002508B9
:10091000F3002608F400080020302706031D952C5C
:100920009430F3008130F400080030302702031CBB
:10093000B32C3A3027020318B32C0530A400240846
:10094000A0002708EB3E0A128A116F20123E831284
:100950000313A50081300318013EA6002508F3000B
:100960002608F40008003A302706031DBC2CCB30C3
:10097000F3008130F40008009930F3008130F40076
:100980000800831203134108031DCF2C0130C2005D
:100990004208DB070330C2004208DB05D82C5B08A5
:1009A000031DD62C0430C2004208DB000130DB02FC
:1009B0005B080A128A11E7270A128A1183160317A5
:1009C0008C18DE2C831203178D01831203135B082E
:1009D000831203178C003F3083120313C2004208B6
:1009E000831603178C058312031303108B1B031448
:1009F0008B13831603170C1555308D00AA308D000C
:100A00008C140C118312031303188B17E230B100FE
:100A10008130B2005B08C2004208B3000230C3005C
:100A20004308B4000A128A113F230800603083167D
:100A300003138F000A128A11CC200A128A11043083
:100A40000A128A1182200A128A1101300A128A11AE
:100A500006220A128A110A128A1140260A128A11E3
:100A60000A128A11AC230A128A11831203178D010C
:100A70003F3083120313CD004D08831603178C05F6
:100A80000C14831203170C0883120313CD004D08B6
:100A9000DB00EB30AC008130AD00AE01AE0A0A12D3
:100AA0008A1102260A128A11D93083120313AC006C
:100AB0008130AD000230CD004D08AE000A128A111F
:100AC00002260A128A110A128A115C200A128A115D
:100AD000632D83120313A601A31F752DA209A30979
:100AE000A20A0319A30AA601A60AA11F7C2DA00928
:100AF000A109A00A0319A10A200821040319A92D9C
:100B0000A501A50AA11B902D01300310A00DA10D78
:100B1000FF3E031D852D0130A4002408A507822D6A
:100B200021082302031D962D20082202031C9E2D5E
:100B30002008A2022108031CA303A3020130031012
:100B4000A10CA00CFF3E031D9F2D0130A502031D2B
:100B5000902D26080319B12DA209A309A20A031991
:100B6000A30A2308A1002208A0000800D02D8312A8
:100B70000313DB01E92DDB01DB0AE92D0230C12D76
:100B80000330C1004108DB00E92D07148710CA2D8E
:100B900007108714101450308F0038308E00E92D64
:100BA000831203135E08083A0319BB2D183A031980
:100BB000C82D303A0319C52D183A0319E92DB03A5A
:100BC0000319C02D183A0319B72D303A0319BE2D59
:100BD000E92D5B080A128A11E7270A128A11E2300E
:100BE00083120313B1008130B2005B08C1004108D9
:100BF000B300B401B40A0A128A113F23831203130B
:100C0000DE0108000230831203132E06031D0B2E93
:100C1000871307120D2E88130812B0010830300216
:100C20000318382E30082C0784002D0803182D0ACD
:100C3000FF000A128A1100210A128A110A128A116F
:100C40006B240A128A11730883120313A800740814
:100C5000A9000A128A1197270A128A1101308312F9
:100C60000313AF002F08B00708303002031C122E08
:100C700002302E06031D3E2E071608000816080037
:100C8000831603130614831603170912831603131E
:100C9000011716148B1581110108F83902388100EB
:100CA0008B1681120B11BE308312031381000A12BE
:100CB0008A11FB278312031390121016901510153A
:100CC0009010101050308F0038308E0083160313B0
:100CD0000C14831203130C108316031307108710D0
:100CE00083120313071087100B178B1708000030AF
:100CF00083120313061A0130C6000030861A013031
:100D0000C7004608031DD9189A2E470803198E2ECE
:100D10006D0803199A2EC101C10A942E8312031380
:100D20006D0803199A2EC1016D080A128A113C2020
:100D30000A128A11831203134608C40001300310FB
:100D4000C40DFF3E031D9F2E47084407C5004508FC
:100D5000D90008000B110A128A11DB200A128A112D
:100D600004307702031CC02E031083120313DD0D21
:100D70000618BC2E0130BD2E0030F0007008DD04D6
:100D80000130F0007008F7070C307706031D0800EB
:100D9000831203135C080319D32E5D08F00070085A
:100DA000DE00DC01D72E5D08F0007008DC00F701E2
:100DB000DD01080083120313A30002302106031D86
:100DC000E42E87130712E62E88130812A401283098
:100DD00024020318012F24082307A20022088400FC
:100DE000831300080A128A11BB200A128A110130EB
:100DF00083120313A2002208A40728302402031C34
:100E0000EB2E02302106031D072F071608000816D7
:100E1000080083120313A20002302206031D1F2FB5
:100E200007110D3083120313A100FB30A000A00BAB
:100E3000172FA10B172F8312031307150800081192
:100E40000D3083120313A100FB30A000A00B262F4E
:100E5000A10B262F83120313081508000B1C352F36
:100E60000A128A11B0200A128A110B1D3C2F0A1295
:100E70008A11AA260A128A11831203130C1C482F06
:100E80000C1050308F0038308E0010100710871073
:100E90007408FF0073088A0072088400710E8300D2
:100EA000FE0E7E0E090083120313A200A401200887
:100EB0000319742FA301A30AA01B652F0310A00D13
:100EC0000130A1002108A3075C2F0310A40D200806
:100ED0002202031C6F2F2008A20224140310A00C6E
:100EE0000130A302031D652F240808008312031399
:100EF000B100293084004E30A5000408A600083057
:100F0000A7002508840083130008A800A50A260866
:100F1000840028088000A60AA70B812F3108A500AD
:100F20002508A10029300A128A11DA260800831246
:100F30000313AB0105302B02031808002B08280708
:100F4000840029080318290AFF000A128A110021C7
:100F50000A128A110A128A11BB200A128A11013060
:100F600083120313AA002A08AB079A2F83120313D4
:100F7000A20002302106031DC02F87170712C22FBF
:100F80008817081222080A128A11BB200A128A1135
:100F90000230831203132106031DD02F0716080009
:100FA00008160800283083120313A200A20BD62FC4
:100FB000D92F831203139F149F18DC2F1E08A10042
:100FC000831603131E0883120313A0000800831264
:100FD0000313A2000130A000220AF02F0310A00D7D
:100FE000FF3E031DEE2F2008A1002108A300A30946
:0E0FF0002308850008008316031381160800ED
:04400E00C4F3FFFFF9
:00000001FF
